:020000040800F2
:10000000B809002019020008210200082302000894
:10001000250200082702000829020008000000004D
:100020000000000000000000000000002B0200089B
:100030002D020008000000002F0200083102000815
:1000400033020008330200083302000833020008BC
:1000500033020008330200083302000833020008AC
:10006000330200083302000833020008330200089C
:10007000330200083302000833020008330200088C
:10008000330200083302000833020008330200087C
:10009000330200083302000833020008330200086C
:1000A000330200083302000833020008330200085C
:1000B000CD1900083302000833020008330200089B
:1000C000330200083302000833020008330200083C
:1000D000330200083302000833020008330200082C
:1000E000330200083302000833020008330200081C
:1000F000330200083302000833020008330200080C
:1001000033020008330200083302000833020008FB
:10011000F91800083302000833020008330200080F
:1001200033020008330200083302000833020008DB
:1001300000F002F800F061F80AA090E8000C824498
:100140008344AAF10107DA4501D100F056F8AFF275
:10015000090EBAE80F0013F0010F18BFFB1A43F0A5
:1001600001031847745B0000945B00000A444FF0E1
:10017000000C10F8013B13F0070408BF10F8014B06
:100180001D1108BF10F8015B641E05D010F8016B4B
:10019000641E01F8016BF9D113F0080F1EBF10F8AF
:1001A000014BAD1C0C1B09D16D1E58BF01F801CBD2
:1001B000FAD505E014F8016B01F8016B6D1EF9D555
:1001C0009142D6D37047000000230024002500266A
:1001D000103A28BF78C1FBD8520728BF30C148BFAA
:1001E0000B607047632903F08686002070471FB5B7
:1001F00005F097FB1FBD10B510BD03F091FE114631
:10020000FFF7F5FF00F0FEFF03F0AFFE03B4FFF7CA
:10021000F2FF03BC03F0B4FE0948804709480047D9
:10022000FEE7FEE7FEE7FEE7FEE7FEE7FEE7FEE7A6
:10023000FEE7FEE704480549054A064B7047000003
:10024000ED1A000831010008B8030020B8090020A9
:10025000B8050020B80500202DE9F04F87B0FE4911
:10026000FE48006805F096FA0446FD4801682046FD
:1002700005F040F9FB490860FB49887805F076FAFB
:100280000546F8480168284605F084FA0446F7490F
:1002900005F092F9F6490860F6480168F1480068EF
:1002A00005F04CFB0546F049487905F05FFA064633
:1002B000EE4905F081F90446294605F06BFAEE494E
:1002C0000860E8480068EB490860EB480168E848C6
:1002D000006805F00FF9E9490860E349087A04F07D
:1002E00063FE80468946E548006805F0D7F8CDE909
:1002F000020104F047FB06460022E14B04F0A4FE95
:1003000042464B46CDE9040104F09EFE824600229F
:10031000DC4B04F0C1FB044604F0D2FDDA4908606E
:10032000D149087A04F040FECDE90401D3480068C1
:1003300005F0B4F88046D54AD54B04F0ADFB06462F
:1003400004F020FB0022CE4BCDE9000104F07CFE3E
:10035000CDE90201DDE9042304F076FE0446002223
:10036000C84B04F099FB824604F0AAFDC949086015
:10037000BD49087A04F018FE80468946BF480068E7
:1003800005F08CF80646C44AC44B04F085FBCDE961
:10039000000104F0F7FA0022B94BCDE9020104F0A4
:1003A00053FE044642464B4604F04EFE824600226F
:1003B000B44B04F071FBCDE9040104F081FDB849B0
:1003C0000860B1480068B7490880B2480068091D54
:1003D0000880B3480068091D0880AB4800681E30DB
:1003E000A9490860AB4800681E30AA490860AC48BB
:1003F00000681E30AA490860A3480068B0F57A7FFB
:1004000003DB4FF47A70A0490860A2480068B0F599
:100410007A7F03DB4FF47A709E490860A048006839
:10042000B0F57A7F03DB4FF47A709D4908609648F7
:1004300000689D49088097480068091D0880984811
:100440000068091D088007B0BDE8F08F2DE9F04F66
:1004500087B081499548006805F09CF904469448A6
:100460000168204605F046F8924908607E494878C0
:1004700005F07CF905468F480168284605F08AF9A1
:1004800004467A4905F098F88B4908608B48016862
:100490008848006805F052FA05467349087905F066
:1004A00065F90646714905F087F80446294605F0C6
:1004B00071F9834908607F48006880490860804876
:1004C00001687D48006805F015F87E4908606649B6
:1004D000C87904F069FD804689467A48006804F0CE
:1004E000DDFFCDE9020104F04DFA06460022644B1F
:1004F00004F0AAFD42464B46CDE9040104F0A4FDF8
:10050000824600225F4B04F0C7FA044604F008FD5F
:100510006D4908805449C87904F046FDCDE90401CD
:100520006848006804F0BAFF8046584A584B04F007
:10053000B3FA064604F026FA0022514BCDE9000139
:1005400004F082FDCDE90201DDE9042304F07CFD25
:10055000044600224B4B04F09FFA824604F0E0FC74
:100560005949091D08804049C87904F01DFD80469D
:1005700089465448006804F091FF0646464A474BB6
:1005800004F08AFACDE9000104F0FCF900223C4BAA
:10059000CDE9020104F058FD044642464B4604F002
:1005A00053FD82460022374B04F076FACDE9040170
:1005B00004F0B6FC44490831088007B0BDE8F08F6C
:1005C0002DE9F04F87B024494048006805F0E2F873
:1005D00004463F480168204604F08CFF3D4908600E
:1005E0002149087805F0C2F805463A4801682846CE
:1005F00005F0D0F804461D4904F0DEFF36490860D6
:10060000364801683348006805F098F905461649F0
:10061000C87805F0ABF80646144904F0CDFF04464F
:10062000294605F0B7F82E4908602A4800682B498A
:1006300008602B4801682848006804F05BFF2949DE
:1006400008600949887904F0AFFC8046894625484E
:10065000006804F023FF47E000007A4424000020F3
:100660002000002068020020280000200000C8426E
:10067000700200206C02002074020020640200203E
:100680000000144000407F40BC010020B81E85EBF4
:1006900051B80040C0010020C3F5285C8FC2104053
:1006A000C401002034080040340C00401C0000202D
:1006B00018000020400200204802002044020020D0
:1006C0004C0200203C020020342C01401400002089
:1006D00010000020140200201C020020180200203C
:1006E0002002002010020020CDE9020104F04AF9A6
:1006F00006460022FA4B04F0A7FC42464B46CDE9E1
:10070000040104F0A1FC82460022F64B04F0C4F977
:10071000044604F005FCF4490880F449887904F0A3
:1007200043FCCDE90401F248006804F0B7FE8046BE
:10073000F04AF14B04F0B0F9064604F023F9002228
:10074000E74BCDE9000104F07FFCCDE90201DDE9D2
:10075000042304F079FC04460022E24B04F09CF9E7
:10076000824604F0DDFBE049091D0880DF498879F5
:1007700004F01AFC80468946DD48006804F08EFECD
:100780000646DE4ADE4B04F087F9CDE9000104F0AD
:10079000F9F80022D24BCDE9020104F055FC0446E1
:1007A00042464B4604F050FC82460022CD4B04F0FA
:1007B00073F9CDE9040104F0B3FBCB49083108809B
:1007C00007B0BDE8F08F10B504460323012221468F
:1007D000CC4803F01CF90121CA4803F0ECF800BF33
:1007E0000221C84803F042FA0028F9D0C54803F0B6
:1007F00075F910BD2DE9F04106460D4617461C4619
:1008000000BF4FF40031C04803F006F80028F8D1CB
:100810000121BD4802F0FFFE00BFBC49BA4802F00A
:10082000D9FF0028F9D000223146B74802F04CFF2A
:1008300000BFB749B44802F0CDFF0028F9D001212C
:10084000B14802F0C4FE3946AF4802F037FF00BF9E
:10085000AF49891CAC4802F0BDFF0028F8D0012147
:10086000A94802F0D8FE00BFA849A74802F0B2FF8D
:100870000028F9D001223146A34802F025FF00BF2D
:10088000A249491CA04802F0A5FF0028F8D016E0B4
:10089000012C07D100219C4802F0D5FE01219A4885
:1008A00002F0C5FE99493F31974802F093FF30B1FD
:1008B000954802F005FF28706D1C601E84B2002C64
:1008C000E6D10121904802F0BEFEBDE8F0812DE99D
:1008D000F047062343228F49D020FFF78BFF8D4836
:1008E00040788C49097840EA012000B28A490880A2
:1008F0000846B0F9000004F021FF8146874904F062
:10090000F9FD804604F0CAFD06460022844B04F03F
:100910007FF9044604F08EF8824908607D48C0786B
:100920007C49897840EA012000B27F490880084666
:10093000B0F9000004F002FF81467C4904F0DAFDC2
:10094000804604F0ABFD04460022754B04F060F9CC
:10095000064604F06FF8764908606E4840796D49A4
:10096000097940EA012000B2724908800846B0F9CE
:10097000000004F0E3FE81466F4904F0BBFD8046B1
:1009800004F08CFD06460022654B04F041F9044654
:1009900004F050F869490860BDE8F08710B50623F7
:1009A0003B226749D020FFF725FF6548407864491E
:1009B000097840EA012000B2624908800846B0F98F
:1009C000000004F0BBFE604908605D48C0785C49E7
:1009D000897840EA012000B25C4908800846B0F9F5
:1009E000000004F0ABFE5A4908605548407954496C
:1009F000097940EA012000B2564908800846B0F95A
:100A0000000004F09BFE5449086010BD30B585B06D
:100A10000446684602F06FFC42F210710198B0FB88
:100A2000F1F000FB04F500E06D1E002DFCD105B0D7
:100A300030BD10B5044600BF4FF40031324802F01B
:100A4000EBFE0028F8D101212F4802F0E4FD00BFA1
:100A50002E492D4802F0BEFE0028F9D00022AE211A
:100A6000294802F031FE00BF2949274802F0B2FEB2
:100A70000028F9D00121244802F0A9FD214622488E
:100A800002F01CFE00BF2249891C1F4802F0A2FE92
:100A90000028F8D001211C4802F0BDFD00BF1B4911
:100AA000194802F097FE0028F9D00122AE2116481D
:100AB00002F00AFE00BF15493F31134802F08AFEDA
:100AC0000028F8D0104802F0FBFD244908600021FE
:100AD0000D4802F0B8FD01210B4802F0A8FD10BD41
:100AE0000000144000407F403434014028000020C2
:100AF00010020020B81E85EB51B80040C3F5285CF9
:100B00008FC2104000240140005800400100030043
:100B100082000700BA020020FC010020000096437A
:100B20000040BF4098020020FA0100200000A043CE
:100B30009C020020FE0100200000AF43A002002024
:100B4000B4020020000200208C02002002020020DB
:100B5000900200200402002094020020D001002016
:100B600008B54FF4E06003F0B1F834208DF80000D0
:100B700000208DF8020001208DF80300684603F084
:100B8000AAF808BD10B54FF4E070FE49088018209F
:100B9000C87002208870FC4801F088F80520FB49E5
:100BA0000880002048804FF47A7088804FF40070ED
:100BB000C880F74801F0A0FC6020F64908800120B9
:100BC00048800020C8800881F14801F05DFD602068
:100BD000F0490880012048800020C8800881EC4846
:100BE00001F009FD6020EB490880012048800020C9
:100BF000C8800881E64801F0BCFC10BD10B5072094
:100C0000E04908801820C87002208870E24801F08E
:100C10004DF80520DD490880002048804FF47A70A7
:100C200088804FF40070C880DC4801F065FC6020CB
:100C3000D8490880012048800020C880022008810F
:100C4000D64801F021FD6020D2490880012048806B
:100C50000020C88002200881D04801F0CCFC602030
:100C6000CC490880012048800020C88002200881EB
:100C7000CA4801F07EFC10BD47204FF08041088536
:100C80004FF4FA6088850120888108801C200121AA
:100C9000814042094FF0E02303EB8202C2F80011C9
:100CA00000BF704710B54FF4E070B64908801820B7
:100CB000C87002208870BA4800F0F8FF8020B1495F
:100CC00008801820C87002208870B34800F0EEFF3A
:100CD0000320AC4908801820C87002208870AA48F8
:100CE00000F0E4FF0520A9490880002048804FF467
:100CF0007A7088800020AB49C8800872A349AA484E
:100D000001F0FAFB6020A3490880012048800420FC
:100D100088800020C880088148814FF480708881D5
:100D20000020C881A04801F024FC9A499E4801F0A7
:100D300062FC98499C4801F0A7FC4FF400609B4975
:100D4000088040104880801088805020C880002093
:100D500008814FF40050488140008881924801F09A
:100D6000C6FE0121904801F0F7FE01218E4801F0F6
:100D7000FFFE10BD10B54FF4E060824908801820D6
:100D8000C87002208870844800F090FF4FF46040E3
:100D90007C4908801820C870022088707A4800F0CA
:100DA00085FF052079490880002048804FF47A703B
:100DB000888000207B49C880087274497C4801F013
:100DC0009BFB6020734908800120488004208880B4
:100DD0000020C880088148814FF4807088810020FD
:100DE000C881734801F0C5FB6A49714801F003FCF2
:100DF00068496F4801F048FC4FF400606B49088077
:100E000040104880801088805020C88000200881D1
:100E10004FF40050488140008881654801F067FE2A
:100E20000121634801F098FE0121614801F0A0FE14
:100E300010BD10B50520FFF7E9FD01215D4802F066
:100E4000EAFB00BF5C495B4802F0E6FC0028F9D0F1
:100E50000022D021574802F037FC00BF57495548BF
:100E600002F0B8FC0028F9D01921524802F026FC03
:100E700000BF5249891C4F4802F0ACFC0028F8D052
:100E800007214C4802F01AFC00BF4C49891C494814
:100E900002F0A0FC0028F8D00121464802F0C7FB70
:100EA00000BF45490F31434802F0B6FC0028F8D195
:100EB0000121404802F0AFFB00BF3F493D4802F02E
:100EC000ABFC0028F9D00022D0213A4802F0FCFB0C
:100ED00000BF3A49374802F07DFC0028F9D01A21BA
:100EE000344802F0EBFB00BF3449891C314802F062
:100EF00071FC0028F8D002212E4802F0DFFB00BF71
:100F00002E49891C2B4802F065FC0028F8D00121ED
:100F1000284802F08CFB00BF27490F31254802F01A
:100F20007BFC0028F8D10121224802F074FB00BFAD
:100F30002149204802F070FC0028F9D00022D0217D
:100F40001C4802F0C1FB00BF1C491A4802F042FCD9
:100F50000028F9D01B21174802F0B0FB00BF174949
:100F6000891C144802F036FC0028F8D008211148EA
:100F700002F0A4FB00BF1149891C0E4802F02AFCB4
:100F800000281DE0A0010020000C01400203002009
:100F900000080040E802002000080140000C00406A
:100FA00000100140F8020020003401400C03002032
:100FB000002C014000580040010000108200070092
:100FC000D9D00121FE4802F032FB00BFFD49FC48A8
:100FD00002F022FC0028F9D10121F94802F01BFBA4
:100FE00000BFF8490F39F64802F016FC0028F8D087
:100FF0000022D021F24802F067FB00BFF249F0481E
:1010000002F0E8FB0028F9D06B21ED4802F056FB16
:1010100000BFED49891CEA4802F0DCFB0028F8D04B
:101020000021E74802F04AFB00BFE749891CE44879
:1010300002F0D0FB0028F8D00121E14802F0F7FAD5
:1010400000BFE049DE4802F0E7FB0028F9D10520A7
:10105000FFF7DCFC10BD10B50220DC490880002041
:10106000C870DB4800F022FE4FF4004002F017F990
:101070000121480202F0ACF9D64802F009FC002038
:10108000D5490860087148714FF4602088600020DD
:10109000C86001200874CF4802F021FC0121CD482E
:1010A00002F049FCCB4802F068FC00BFC94802F0DE
:1010B00069FC0028FAD1C74802F06EFC00BFC548A1
:1010C00002F06FFC0028FAD110BD10B5012188058F
:1010D00002F08BF94FF44060BC4908801C20C870B6
:1010E00003208870BD4800F0E1FD0121B44802F002
:1010F0006EFA0020BA498880BA4808604BF6FF7043
:10110000C880D02008814FF4806048810001888128
:10111000AB4802F0DEF90121A94802F094FA10BDB3
:1011200000B587B04FF48060ADF8180018208DF836
:101130001B0003208DF81A0006A9AB4800F0B6FD8D
:101140004FF40060ADF8180004208DF81B0006A9CC
:10115000A54800F0ABFD684600F0BDFF6946A34816
:1011600000F0A8FF4FF4165002900020ADF80C00DC
:10117000ADF80E00ADF810000C20ADF81200002004
:10118000ADF8140002A9994800F01FFF012240F2B7
:101190002551964800F0B1FF0121944800F0A1FFCD
:1011A00007B000BD10B54FF480508849088010206A
:1011B000C87003208870894800F078FD202083499A
:1011C00008801020C87003208870874800F06EFDEA
:1011D00080207E4908801020C870032088707C48D9
:1011E00000F064FD10BD10B5012142F67D2002F033
:1011F000EFF801217E4802F0F8F80121084602F0DC
:10120000DAF810BD1FB5FFF7EEFFFFF7CBFFFFF7D2
:1012100087FFFFF75AFFFFF71EFF6420FFF7F6FB7B
:10122000FFF707FEFFF7A6FDFFF73CFDFFF724FDE4
:10123000FFF7E4FCFFF7A6FCFFF792FC01216D48E5
:1012400001F08AFC01216B4801F092FC01206A49FF
:10125000086004E068480068401C67490860664808
:1012600000680128F6DB0121644801F075FC0121CA
:10127000624801F07DFC00224FF48051574800F095
:10128000C4FD6420FFF7C2FB00205B49086012E048
:1012900059480068C0B2FFF7CCFB5948006859496B
:1012A000554A126888540520FFF7B0FB5248006881
:1012B000401C51490860504800680928E8DB0121BA
:1012C0003F4802F0C0F96420FFF7A0FB4E484F49A9
:1012D00008604F484F4908604B484F4908604C48E8
:1012E0004E49086048484E49086049484D490860E1
:1012F00044E201221103394800F087FD2BE001226E
:101300001103364800F081FD6420FFF77FFB0022C7
:101310004FF48051314800F078FD6420FFF776FBF0
:101320000020364934310880091D0880091D0880D5
:10133000304934310880091D0880091D08803A4968
:101340000880091D0880091D088038490880091D8A
:101350000880091D0880364800680128CFD0FFF7B3
:101360001DFB3448006804F099F806460F463248E1
:10137000006804F093F8824632463B4603F042FA96
:1013800081F0004104462D4A2D4B03F09DFF80461D
:1013900003F050FB2B4908602648006804F07EF8F3
:1013A000804689462848006804F078F8044642469A
:1013B0004B4603F027FA064603F03CFB234947E07F
:1013C000005800401000001082000700A00100201B
:1013D00000080140002401401C030020000C0140D3
:1013E00030030020801A060000100140004C00402D
:1013F0000D000800000C0040B8010020000800406B
:10140000D0010020280000200AD7233E240200201B
:10141000CDCC4C3F28020020500200205402002076
:10142000780200207C020020342C0140343401403A
:10143000AC010020940200208C0200209A99999916
:101440009999B93F84020020900200208802002070
:101450000860FFF73CFAF748006804F01FF8804680
:101460008946F548006804F019F806460022F34B57
:1014700003F0EAFD824642464B4603F00DFB04466C
:101480000022EF4B03F0C4FBCDE9020103F0D2FAD6
:10149000E9490860EB48006804F000F804460D468E
:1014A000E948006803F0FAFF06460022E34B03F028
:1014B000CBFD824622462B4603F0EEFA0022E04B9B
:1014C000CDE9020103F0A4FB804603F0B3FADE4944
:1014D0000860DE48006803F0E1FF06464FF0663220
:1014E000DB4B03F0B1FD044603F0EAFCD94951F8A7
:1014F0002000D9490860D548006803F0CFFF0446B2
:101500004FF06632D24B03F09FFD064603F0D8FC45
:10151000C0F15A00CF4951F82000D0490860084670
:101520000168CF48006804F035F90646CD480068E8
:1015300080F00045C8480168284604F02BF90446AD
:10154000314603F0D7FFC8490860C8480168BA4867
:10155000006804F0F3F9039003F0A0FF8046C44A4A
:10156000C44B03F071FD06460F46C3480168BE48F0
:10157000006804F00FF98146BC480168484603F052
:10158000B9FF804603F08AFF824632463B4603F0AD
:1015900083FA044603F04EFAB4490860B64801687D
:1015A000B048006804F0F6F80446B44801682046E4
:1015B00003F0A0FFB1490860B1480168A248006883
:1015C00004F0BCF9039003F069FF0646A84AA94B52
:1015D00003F03AFD04460D46A7480168A948006893
:1015E00004F0D8F80746A6480168384603F082FFA1
:1015F000064603F053FF804622462B4603F04CFA82
:10160000824603F017FA9E4908600120FFF7DBF8D5
:10161000019003F0C9FC044600229B4B03F0F8FA4A
:1016200006460F468948006803F038FF044600224A
:10163000824B03F009FD32463B46CDE9020103F03F
:101640002BFA804600227E4B03F0E2FA824603F03A
:10165000F1F97E4908600020086008460168884862
:10166000006804F06BF9894908600846006803F0D7
:1016700015FF06460022864B03F0E6FC044603F005
:10168000D9F9844908600846006803F007FF04465A
:1016900000224FF0804303F0D5FD03D24FF080408D
:1016A0007C4908607B48006803F0F8FE044600228D
:1016B0004FF0404303F08CFC03D24FF0404075499B
:1016C0000860744801687448006803F013FF7249A9
:1016D00008606648006803F0E1FE064600226F4B92
:1016E00003F0B2FC044603F0A5F96D490860084612
:1016F000006803F0D3FE044600224FF0804303F05D
:10170000A1FD03D24FF0804065490860644800683D
:1017100003F0C4FE044600224FF0404303F058FC9F
:1017200003D24FF040405E4908605D4801685D4863
:10173000006803F0DFFE5B490860FEF741FFFEF73B
:1017400085FEFEF789FD58480088401C00B25649C6
:1017500008800846B0F90000642801DB00200880FA
:1017600000205249086000224FF48051504800F098
:101770004CFB00BF4D4800680028FBD0B9E500BF16
:101780004C49098811F0800FFAD04A49091D088098
:10179000704700B5024603E01078FFF7F0FF521CD7
:1017A00010780028F8D100BD70B504460D4605201C
:1017B000FFF72CF90121404801F02DFF00BF3F4900
:1017C0003D4802F029F80028F9D00022AE213A481D
:1017D00001F07AFF00BF3A49374801F0FBFF0028CB
:1017E000F9D0E1B2344801F069FF00BF3449891CE7
:1017F000314801F0EFFF0028F8D0E9B22E4801F09F
:101800005DFF00BF2E49891C2B4801F0E3FF002833
:10181000F8D00121284801F00AFF00BF27490F3105
:10182000254801F0F9FF0028F8D10520FFF7EEF870
:1018300070BD000084020020AC02002000C05840AF
:101840000000594088020020B0020020E40100207E
:1018500066A64C4034000020E8010020EC01002086
:101860009C020020A0020020F00100201C000020AB
:101870002D431CEBE2362A3F040000202400002008
:101880002C020020980200200040AF4014000020ED
:1018900000C06240300200201000002000006940BB
:1018A000580200201800002006020020000000203E
:1018B000000C0140004C00400058004001000010A6
:1018C0008200070010B500240DE0012211034848F2
:1018D00000F09BFA4748015D2046FFF765FF0520B1
:1018E000FFF794F8641C092CEFDB00224FF48051C1
:1018F0003F4800F08AFA10BD10B501203E4908604B
:1019000000BF20213D4800F0CAFC0028F9D03B4828
:1019100000F05BFC3A49086001221103344800F0F2
:1019200074FA37480068672821D16420FFF76EF801
:1019300034A1354802F038FA3348FFF72AFF002473
:101940000FE0E0B2FFF775F80520FFF75FF82F48CA
:101950002FA102682C4802F027FA2B48FFF719FF45
:10196000641C092CEDDB01212A4801F06CFE2A4899
:101970000068012814D1224800681E49274A1268CD
:10198000885426480068401C2449086008460068BE
:10199000082805DD002008601F490860FFF792FF56
:1019A00017480068682802D101201B4908601448C4
:1019B0000068692802D101200F49086010480068BA
:1019C0006A2802D100200C49086010BD4FF0804009
:1019D000008A10F0010F0AD04FF08040008A20F0FA
:1019E00001004FF08041088201200D4908607047D6
:1019F000000C014028000020AC010020004C0040F9
:101A0000D4010020780000004C030020D001002009
:101A10002563000000580040B4010020B001002000
:101A20000000002000210020674A126842F4803242
:101A3000654B1A6000BF644A126802F40030491C0A
:101A400010B9B1F5A06FF6D15F4A126812F4003FE9
:101A500001D0012000E00020012842D15B4A126839
:101A600042F01002594B1A601A46126822F0030223
:101A70001A601A46126842F002021A60524A52680C
:101A8000514B5A601A4652685A601A46526842F4DC
:101A900080625A601A46526822F47C125A601A46D2
:101AA000526842F4E8125A601A46126842F0807294
:101AB0001A6000BF444A126812F0007FFAD0424A0E
:101AC000526822F00302404B5A601A46526842F0B4
:101AD00002025A6000BF3C4A526802F00C02082A17
:101AE000F9D1704710B5FFF79DFF10BD10B536480E
:101AF000006840F0010034490860084640683449F5
:101B000008403149486008460068324908402E497B
:101B100008600846006820F4802008600846406895
:101B200020F4FE0048604FF41F008860FFF7DAFFE2
:101B30004FF000602849086010BD10B5002100205A
:101B40000022214B5B6803F00C0121B1042906D06F
:101B5000082928D107E0214B214C236027E01F4BA7
:101B60001F4C236023E0184B5B6803F47010164B86
:101B70005B6803F48032022303EB904022B9194BD7
:101B80004343174C23600DE00F4B5B6813F4003F99
:101B900004D0144B4343124C236003E00F4B4343E8
:101BA0000F4C236003E00D4B0D4C236000BF00BFC2
:101BB000054B5B68C3F303130B4CE15C084B1B68DC
:101BC000CB40074C236010BD0010024000200240B3
:101BD0000000FFF8FFFFF6FE08ED00E000127A00BB
:101BE000C002002000093D00C402002010B50446D8
:101BF000CA48844208D10121042001F003FC0021DD
:101C0000042001F0FFFB46E0C548844208D10121D1
:101C1000082001F0F7FB0021082001F0F3FB3AE077
:101C2000C048844208D10121102001F0EBFB0021C3
:101C3000102001F0E7FB2EE0BB48844208D10121CF
:101C4000202001F0DFFB0021202001F0DBFB22E05F
:101C5000B648844208D10121402001F0D3FB002185
:101C6000402001F0CFFB16E0B148844208D10121A9
:101C7000802001F0C7FB0021802001F0C3FB0AE0B7
:101C8000AC48844207D10121801501F0BBFB002143
:101C9000A01501F0B7FB10BD10B50121084601F0F9
:101CA000B1FB0021012001F0ADFB10BD2DE9F04199
:101CB000024600250026002000230024002791F87A
:101CC00003C00CF00F0591F803C01CF0100F03D0F7
:101CD00091F802C04CEA0505B1F800C01CF0FF0FF6
:101CE00031D0146800202BE04FF0010C0CFA00F307
:101CF000B1F800C00CEA03069E4220D183004FF0E9
:101D00000F0C0CFA03F7BC4305FA03FC4CEA04047D
:101D100091F803C0BCF1280F06D14FF0010C0CFA6A
:101D200000FCC2F814C00AE091F803C0BCF1480FEF
:101D300005D14FF0010C0CFA00FCC2F810C0401C99
:101D40000828D1D31460B1F800C0BCF1FF0F34DD16
:101D5000546800202EE000F1080C4FF0010808FA4A
:101D60000CF3B1F800C00CEA03069E4221D18300B7
:101D70004FF00F0C0CFA03F7BC4305FA03FC4CEAD6
:101D8000040491F803C0BCF1280F05D100F1080C40
:101D900008FA0CF8C2F8148091F803C0BCF1480F9F
:101DA00007D100F1080C4FF0010808FA0CF8C2F84E
:101DB0001080401C0828CED35460BDE8F0814FF657
:101DC000FF710180022181700421C17070470246B9
:101DD000002093680B4201D0012000E000207047F2
:101DE0000146886880B2704702460020D3680B42E3
:101DF00001D0012000E0002070470146C86880B291
:101E0000704701617047416170470AB1016100E0AC
:101E100041617047C16070474FF480320A4382616C
:101E20008161826182698269704702460020424B6B
:101E300018684FF68073184040EA021008433E4B82
:101E4000186070473D49C8617047F0B50A460023E5
:101E500000240021002500F00046B6F1004F02D119
:101E6000354EF16901E0344E7168C0F3034583B229
:101E700000F44016B6F5401F08D121F070612E4ED7
:101E8000766826F070662C4F7E6012E000F48016B3
:101E9000B6F5801F06D1032606FA05F4A14341F0EA
:101EA000706106E0460D360103FA06F6B14341F0D3
:101EB000706122B1460D360103FA06F6314300F097
:101EC0000046B6F1004F02D11B4EF16101E01A4EFF
:101ED0007160F0BD30B500228B071C0F0F2303FA91
:101EE00004F2154B08338C1053F824309343124CF2
:101EF00008348D1044F8253023468C1053F82430D4
:101F00008C07240F00FA04F423430B4C08348D1083
:101F100044F8253030BD0A49086070470008014088
:101F2000000C014000100140001401400018014065
:101F3000001C014000200140000001400000204240
:101F4000DC00204210B50446FC48844209D101213E
:101F5000880301F057FA00214FF4804001F052FA53
:101F600032E0F748844209D10121480401F057FAD0
:101F700000214FF4003001F052FA25E0F14884428C
:101F800009D10121880401F04AFA00214FF4802090
:101F900001F045FA18E0EC48844209D10121C80457
:101FA00001F03DFA00214FF4002001F038FA0BE077
:101FB000E648844208D10121080501F030FA0021E9
:101FC0004FF4801001F02BFA10BD2DE9F04786B0D8
:101FD00005460E460024A24600BFA1460027B08950
:101FE00000B100BF2F462C8A4CF6FF700440F088E9
:101FF00004432C82AC894EF6F3100440B08831893A
:102000000843718908430443AC81AC8A4FF6FF4012
:102010000440B0890443AC8201A801F06CF9C748C0
:10202000874202D1DDF810A001E0DDF80CA0A889FC
:1020300010F4004F08D00AEBCA0000EB0A10316818
:102040004900B0FBF1F807E00AEBCA0000EB0A1008
:1020500031688900B0FBF1F86420B8FBF0F00401AE
:102060002009642101FB1089A88910F4004F08D0D1
:10207000322000EBC900B0FBF1F000F00700044390
:1020800008E0322000EB09106421B0FBF1F000F011
:102090000F0004432C8106B0BDE8F0874FF41651C1
:1020A000016000218180C18001810C2141810021DA
:1020B0008181704710B502460020108A4FF2FF035D
:1020C00018400B884C8823438C882343CC882343B7
:1020D0001843108210BD0021018041808180C180A1
:1020E000704721B1828942F40052828104E08289E2
:1020F0004DF6FF731A4082817047F0B50346002405
:10210000002600250020A1F510676A3F00D100BF1E
:102110001846C1F3421401F01F06012707FA06F51D
:10212000012C01D10C3004E0022C01D1103000E070
:1021300014301AB107682F43076002E00768AF4305
:102140000760F0BD10B51AB1838A0B43838204E0A7
:10215000838ACC43A4B22340838210BD028A4FF607
:10216000F0731A400282028A0A430282704782890F
:102170004FF2FF731A40828182890A43828170473D
:1021800021B1828942F00202828104E082894FF605
:10219000FD731A4082817047028A4FF6DF731A403E
:1021A0000282028A0A430282704721B1028A42F403
:1021B0008042028204E0028A4BF6FF731A400282D8
:1021C0007047C1F308028280704701468888C0F3D7
:1021D00008007047818941F0010181817047028BBD
:1021E000D2B20283028B42EA012202837047028B41
:1021F00002F47F420283028B0A430283704721B1BB
:10220000828A42F02002828204E0828A4FF6DF73E3
:102210001A408282704721B1828A42F01002828283
:1022200004E0828A4FF6EF731A408282704721B130
:10223000828A42F00802828204E0828A4FF6F773B3
:102240001A408282704721B1828942F40042828121
:1022500003E08289C2F30E028281704721B1828A33
:1022600042F40062828204E0828A4FF2FF731A40D5
:1022700082827047828A4FF6FB731A408282828A7A
:102280000A438282704721B1828A42F0020282822E
:1022900004E0828A4FF6FD731A408282704702463C
:1022A0000020B1F5007F00D100BF13880B4201D0A0
:1022B000012000E00020704701F40072B2F5007FB9
:1022C00000D100BFCA430280704770B502460024A7
:1022D000002300250020A1F510666A3E00D100BF52
:1022E000C1F3421501F01F03012606FA03F3012D85
:1022F00002D19689334006E0022D02D1168A33407E
:1023000001E0968A33400C12012606FA04F416887E
:10231000344013B10CB1012000E0002070BD10B5B5
:1023200000220023A1F510646A3C00D100BF0A120C
:1023300001249440A3B2DC43048010BD0038014066
:102340000044004000480040004C00400050004065
:1023500010B50446FE48844208D10121C01401F0A2
:1023600051F80021E01401F04DF8C4E0B4F1804FC1
:1023700008D10121084601F052F80021012001F0A6
:102380004EF8B8E0F348844208D10121022001F060
:1023900046F80021022001F042F8ACE0EE48844209
:1023A00008D10121042001F03AF80021042001F0B5
:1023B00036F8A0E0E948844208D10121082001F064
:1023C0002EF80021082001F02AF894E0E448844225
:1023D00008D10121102001F022F80021102001F085
:1023E0001EF888E0DF48844208D10121202001F056
:1023F00016F80021202001F012F87CE0DA4884422F
:1024000008D10121401400F0FDFF0021601400F00C
:10241000F9FF70E0D548844209D10121C80400F0D9
:10242000F1FF00214FF4002000F0ECFF63E0D04802
:10243000844209D10121080500F0E4FF00214FF496
:10244000801000F0DFFF56E0CA48844209D1012124
:10245000480500F0D7FF00214FF4001000F0D2FF34
:1024600049E0C548844208D10121402000F0D7FF4F
:102470000021402000F0D3FF3DE0C048844208D155
:102480000121802000F0CBFF0021802000F0C7FF59
:1024900031E0BB48844208D10121801500F0BFFF24
:1024A0000021A01500F0BBFF25E0B648844209D109
:1024B0000121080400F0A6FF00214FF4803000F055
:1024C000A1FF18E0B048844209D10121480400F07E
:1024D00099FF00214FF4003000F094FF0BE0AB486F
:1024E000844208D10121880400F08CFF00214FF4C0
:1024F000802000F087FF10BD00220288944B984294
:102500000ED0994B98420BD0B0F1804F08D0914B30
:10251000984205D0904B984202D0904B984204D1FB
:102520004FF68F731A404B881A438D4B984207D051
:102530008C4B984204D04FF6FF431A40CB881A4385
:1025400002808B8883850B880385814B98420BD052
:10255000854B984208D08B4B984205D08A4B9842C5
:1025600002D08A4B984201D10B7A038601238382E1
:10257000704770B5002400220023058C4FF6FE76CC
:1025800035400584028C8388048B4FF68F752C4070
:10259000B51E2C400D882C43751E2A400D892A43F8
:1025A0004D882A436A4DA8420BD06F4DA84208D0EF
:1025B000744DA84205D0744DA84202D0734DA84274
:1025C00013D14FF6F7752A404D892A434FF6FB7514
:1025D0002A408D882A434FF6FF652B404FF6FF5562
:1025E0002B408D892B43CD892B4383800483CD8859
:1025F0008586028470BD70B5002400220023058CFE
:102600004FF6EF7635400584028C8388048B48F6BC
:10261000FF752C404FF6FF452C400D882D0644EAEF
:1026200015444FF6DF752A400D892D0542EA154203
:102630004D882D0542EA1542454DA84202D04A4D2B
:10264000A8421BD14FF67F752A404D892D0542EADD
:1026500015424FF6BF752A408D882D0542EA154276
:102660004FF6FF352B404FF2FF752B408D89AD049F
:1026700043EA1543CD89AD0443EA154383800483BF
:10268000CD880587028470BD70B500240022002328
:10269000058C4FF6FF6635400584028C8388848B59
:1026A0004FF68F752C404FF6FC752C400D882C434F
:1026B0004FF6FF552A400D892D0642EA15424D88F6
:1026C0002D0642EA1542224DA84202D0264DA842CC
:1026D0001BD14FF2FF752A404D892D0642EA154263
:1026E0004FF6FF352A408D882D0642EA15424EF6F8
:1026F000FF752B404DF6FF752B408D892D0543EA64
:102700001543CD892D0543EA154383808483CD8805
:102710008587028470BD70B5002200230024058CDB
:102720004EF6FF7635400584038C8488828B48F60C
:10273000FF752A404FF6FF452A400D882D0642EAD4
:1027400015424DF6FF752B400D892D0720E0000046
:10275000002C01400004004000080040000C004034
:10276000001000400014004000340140004C0140C3
:10277000005001400054014000180040001C00407F
:10278000002000400040014000440140004801405A
:1027900043EA15434D882D0743EA1543F84DA842F7
:1027A00002D0F84DA84206D14BF6FF752C408D891A
:1027B000AD0544EA154484808283CD88A0F840505A
:1027C000038470BD828B4FF2FF331A408283828B69
:1027D0000B0642EA134282837047F0B50C46154659
:1027E000002200210026078C4EF6FF7C07EA0C072A
:1027F0000784828B018C27073E0C40F6FF473A4046
:102800002F0642EA17421F0742EA1742DC4FB8423E
:102810000ED0DC4FB8420BD0B0F1804F08D0DA4F69
:10282000B84205D0D94FB84202D0D94FB84206D1EC
:102830004DF6FF77394046F48057394305E047F6B7
:10284000FF57394044F48057394382830184F0BDF7
:10285000828B4FF6F3731A408283828B0A43828302
:102860007047F0B50C461546002200210026078C63
:102870004FF6FF6C07EA0C070784828B018C270652
:102880003E0C4FF60C773A401F0545EA17473A438E
:10289000BB4FB8420ED0BB4FB8420BD0B0F1804F07
:1028A00008D0B94FB84205D0B84FB84202D0B84F9F
:1028B000B84206D14FF6FF57394046F48077394386
:1028C00005E04FF2FF57394044F480773943828363
:1028D0000184F0BD028B4FF2FF331A400283028B5A
:1028E0000B0642EA134202837047F0B50C461546C8
:1028F000002200210026078C4FF6EF7C07EA0C0728
:102900000784028B018C27053E0C40F6FF473A40B6
:102910001F0742EA17422F0642EA1742984FB84271
:102920000ED0984FB8420BD0B0F1804F08D0964FE0
:10293000B84205D0954FB84202D0954FB84206D163
:102940004FF6DF77394046F01007394305E04FF680
:102950005F77394044F01007394302830184F0BDAA
:10296000028B4FF6F3731A400283028B0A430283F1
:102970007047F0B50C46154600220021068C4FF634
:10298000FE773E400684028B018C4FF60C76324077
:102990001E0545EA16463243794EB0420ED0794EB6
:1029A000B0420BD0B0F1804F08D0774EB04205D086
:1029B000764EB04202D0764EB04206D14FF6FD764A
:1029C000314044F00106314305E04FF6F5763140E1
:1029D00044F00106314302830184F0BD70B5054621
:1029E0000C46674885420ED0664885420BD0B5F14B
:1029F000804F08D06448854205D06448854202D0A3
:102A00006348854200D100E000BF208850B9238987
:102A1000A28861882846FFF7ACFFE1882846FFF7C7
:102A20009FFF25E0208804280AD12389A288618895
:102A30002846FFF75AFFE1882846FFF74BFF17E0CB
:102A4000208808280AD12389A28861882846FFF7B0
:102A500008FFE1882846FFF7FBFE09E02389A288EA
:102A600061882846FFF7B9FEE1882846FFF7AAFEED
:102A700070BD2DE9F04105460C460026012760880F
:102A800008B9022600E00026A088012801D102270B
:102A900000E001272088A0B92389A2886188284600
:102AA000FFF767FFE1882846FFF75AFF23893A4678
:102AB00031462846FFF719FFE1882846FFF70AFF4D
:102AC00013E02389A28861882846FFF70EFFE1887A
:102AD0002846FFF7FFFE23893A4631462846FFF78E
:102AE00048FFE1882846FFF73BFFBDE8F0810A88F0
:102AF0004B881A438B881A43CB881A430B891A4395
:102B00004B891A438B891A43A0F8442070474FF62B
:102B1000FF71818000210180C18041800172704776
:102B20000021018041808180C180018141818181BA
:102B3000C1817047002101804180012181800021F5
:102B4000C180018170470021018041808180C18066
:102B5000018141818181704721B1028842F00102E7
:102B6000028004E002884FF6FE731A40028070472C
:102B700081B1B0F8442042F40042A0F844200FE0B4
:102B8000002C0140003401400004004000080040D7
:102B9000000C0040B0F84420C2F30E02A0F844201C
:102BA000704710B51AB183890B43838104E0838990
:102BB000CC43A4B22340838110BD8182704741EA97
:102BC0000203A0F84830704710B51AB183890B434F
:102BD000838104E08389CC43A4B22340838110BD68
:102BE00001894FF6F8721140018170470A460021B1
:102BF00001894FF68F73194011430181704730B539
:102C000004460D4629462046FFF7F0FF208940F094
:102C10000700208130BD2DE9F04104460D461646DF
:102C20001F46602D06D13B46012231462046FFF764
:102C30005CFE05E03B46012231462046FFF799FE47
:102C400029462046FFF7D2FF208940F00700208167
:102C5000BDE8F08130B50C4600210189C9B21D06DE
:102C600042EA154525432943018130BD2DE9F04154
:102C700005460E4617469846002443463A463146D6
:102C80002846FFF7E7FF2C894FF6F870044044F020
:102C900007044FF68F70044044F070042C81BDE8A7
:102CA000F081F0B504460D4616461F463B463246B7
:102CB00029462046FFF7CEFF208940F4804020813E
:102CC000F0BD0185828270470A46002101884FF6D7
:102CD0008F731940114301807047F0B50C461546BB
:102CE0001E460021002200230189028B038C4FF62F
:102CF000F877394021434FF6FC473A4040F201173C
:102D00003A434FF6DD773B40370545EA17473B43EB
:102D1000018102830384F0BD0A460021018B4FF636
:102D20008F7319401143018370470A460021018BBC
:102D300048F6FF731940130641EA134101837047B7
:102D40000A460021818B4FF68F731940114381830E
:102D500070470A460021818B48F6FF73194013061D
:102D600041EA13418183704721B1028842F0800219
:102D7000028004E002884FF67F731A400280704799
:102D800021B1828842F00402828004E082884FF6FA
:102D9000FB731A408280704721B1828842F008029A
:102DA000828004E082884FF6F7731A408280704771
:102DB00021B1828842F00102828004E082884FF6CD
:102DC000FE731A40828070470A460021018B4FF63D
:102DD000F77319401143018370470A460021018BA4
:102DE0004FF2FF731940130641EA13410183704704
:102DF0000A460021818B4FF6F773194011438183F6
:102E000070470A460021818B4FF2FF731940130669
:102E100041EA1341818370470A460021018B4FF636
:102E2000FB7319401143018370470A460021018B4F
:102E30004FF6FF331940130641EA134101837047EF
:102E40000A460021818B4FF6FB73194011438183A1
:102E500070470A460021818B4FF6FF331940130655
:102E600041EA1341818370470A460021018B4FF6E6
:102E70007F7319401143018370470A460021018B7B
:102E8000C1F30E01130641EA1341018370470A465C
:102E90000021818B4FF67F73194011438183704766
:102EA0000A460021818BC1F30E01130641EA13414A
:102EB000818370470A460021018C4FF6FD7319404B
:102EC0001143018470470A460021018C4FF6F773C5
:102ED00019401143018470470A460021018C4FF6C6
:102EE000DF731940130541EA1341018470470A4614
:102EF0000021018C4FF67F731940130541EA1341FD
:102F0000018470470A460021018C4FF6FF53194097
:102F1000130641EA1341018470470A460021018CDF
:102F20004FF2FF731940130641EA134101847047C1
:102F30000A460021018C4DF6FF731940130741EA40
:102F400013410184704730B5002301248C40A3B2A3
:102F5000048CDD43ADB22C400484048C02FA01F5EC
:102F6000ADB22C43048430BD30B5002304248C4022
:102F7000A3B2048CDD43ADB22C400484048C02FA6D
:102F800001F5ADB22C43048430BD70B5034600207A
:102F900000241846183001258D40ACB21D8CE64344
:102FA000B6B235401D8409B1082909D100EB610092
:102FB000056825F0700505600568154305600CE09F
:102FC0000D1FADB200EB6500056825F4E045056016
:102FD0000568160645EA1645056070BD21B10288F0
:102FE00042F00202028004E002884FF6FD731A40AC
:102FF0000280704721B1028842F00402028004E09E
:1030000002884FF6FB731A400280704721B1828814
:1030100042F08002828004E082884FF67F731A407B
:103020008280704702884FF6F7731A400280028848
:103030000A430280704782884FF68F731A4082805D
:1030400082880A438280704702894FF6F8731A40DB
:10305000028102890A430281704702894FF67F7319
:103060001A40028102890A430281704781847047B5
:1030700081857047818670470187704781877047D7
:10308000A0F84010704702884FF6FF431A400280B4
:1030900002880A43028070470146888E70470146C5
:1030A000088F70470146888F70470146B1F840008D
:1030B00070470146888C70470146088D704702466C
:1030C0000020138A0B4201D0012000E0002070474D
:1030D000CA430282704730B5024600200023002414
:1030E000158A05EA0103958905EA010413B10CB1BB
:1030F000012000E0002030BDCA430282704700007A
:10310000DC48006840F00100DA4908600846406881
:10311000D9490840D749486008460068D74908405F
:10312000D44908600846006820F4802008600846FA
:10313000406820F4FE0048604FF41F00886070472C
:10314000CC49096821F48031CA4A116011460968E6
:1031500021F480211160B0F5803F03D0B0F5802FBD
:103160000ED106E0C349096841F48031C14A1160BB
:1031700007E0C049096841F4A021BE4A116000E09F
:1031800000BF00BF704710B5014600220023002099
:103190004A11012A02D1B74C236806E0022A02D163
:1031A000B44C236A01E0B34C636A01F01F020124AE
:1031B00094401C4201D0012000E0002010BD70B5F9
:1031C00000240025002600BF3120FFF7DCFF064663
:1031D000641CB4F5A06F01D0002EF5D03120FFF7AC
:1031E000D2FF08B1012500E00025284670BD014648
:1031F0000020A04A106820F0F80040EAC1001060EA
:1032000070479F490860704702460020994B5868F4
:1032100020F47C1042EA01031843964B5860704733
:1032200097490866704701460020924A506820F08E
:1032300003000843506070478E48406800F00C005F
:103240007047014600208B4A506820F0F000084388
:103250005060704701460020864A506820F4E060C4
:1032600008435060704701460020824A506820F4AD
:10327000605040EAC1005060704729B17D4A527ADF
:1032800002437C4B5A7206E07A4A527AC343DBB25D
:103290001A40784B5A7270477A4908607047014665
:1032A0000020744A506820F4404008435060704742
:1032B0000021754A11706F4A82F82010012802D04F
:1032C000042808D103E001216F4A117004E00521B0
:1032D0006D4A117000E000BF00BF70476B49086085
:1032E00070476449096A0143624A1162704767493D
:1032F00044390860704730B50021002200240023C3
:103300005C4D6D6805F00C0121B1042905D0082938
:1033100023D105E05E4D056022E05D4D05601FE0B4
:10332000544D6D6805F47012524D6D6805F480348B
:10333000022505EB92421CB9564D554305600BE042
:103340004C4D6D6815F4003F03D0524D5543056058
:1033500002E04F4D5543056002E04D4D056000BF52
:1033600000BF444D6D6805F0F00109094A4D6B5CE2
:103370000568DD4045603F4D6D6805F4E061090A70
:10338000454D6B5C4568DD4085603A4D6D6805F4E0
:103390006051C90A404D6B5C4568DD40C560354DE4
:1033A0006D6805F44041890B3C4D6B5CC568B5FB0D
:1033B000F3F5056130BD29B12E4A526902432D4B08
:1033C0005A6104E02B4A526982432A4B5A61704782
:1033D00029B1284A92690243264B9A6104E0254AA2
:1033E00092698243234B9A61704729B1214AD2697D
:1033F0000243204BDA6104E01E4AD26982431D4B2E
:10340000DA61704729B11B4AD2680243194BDA606E
:1034100004E0184AD2688243164BDA60704729B13B
:10342000144A12690243134B1A6104E0114A1269EB
:103430008243104B1A617047144940390860704745
:103440000F49C86470470B49C87170470948406A02
:1034500040F0807007494862704701460020054AE5
:1034600092680A4201D0012000E000207047014923
:1034700088727047001002400000FFF8FFFFF6FE60
:1034800000004242D80042422010024080044242E2
:1034900000127A0000093D00D4020020E40200205E
:1034A00010B50446F648844209D101214805FFF7CA
:1034B000B6FF00214FF40010FFF7B1FF08E0012133
:1034C0008805FFF7ACFF00214FF48000FFF7A7FF4E
:1034D00010BD2DE9F04385B004460D460026B146E7
:1034E0000427DFF8A083A6884FF6C0700640684620
:1034F000FFF701FFDDF80880E348B8FBF0F01FFAA2
:1035000080F946EA0906A68020884FF6FE71084039
:1035100020800026DD49286888420CD828684000B1
:10352000B8FBF0F087B2042F00DA04273E4309F11C
:103530000100208427E0E888A0F53F41FF3906D14B
:10354000286800EB4000B8FBF0F087B209E028687B
:1035500000EBC00101EB0010B8FBF0F087B247F4BC
:1035600080473805000D01D147F0010747F40040BE
:1035700006434FF4967009FB00F04FF47A7190FB0C
:10358000F1F0401C2084A683208840F001002080B8
:1035900026884FF6F5300640A88869890843064317
:1035A0002680A88929890843208105B0BDE8F083D9
:1035B00041F288310160002181804BF6FF71C180AA
:1035C0000021018141814FF480418181704721B107
:1035D000028842F00102028004E002884FF6FE7386
:1035E0001A400280704721B1828842F400628280D2
:1035F00004E082884FF2FF731A408280704721B145
:10360000828842F48052828004E082884EF6FF7302
:103610001A408280704721B1028842F48072028091
:1036200004E002884FF6FF631A400280704721B120
:10363000028842F40072028004E002884FF6FF53D1
:103640001A400280704721B1028842F480620280F1
:1036500004E002884FF6FF331A40028070470A46A2
:10366000002181894FF60173194002F0FE031943CE
:103670008181704721B1828942F00102828104E098
:1036800082894FF6FE731A408281704721B1028809
:1036900042F04002028004E002884FF6BF731A40F5
:1036A0000280704710B51AB183880B43838004E011
:1036B0008388CC43A4B22340838010BD018270472D
:1036C0000146088AC0B2704712B141F0010102E020
:1036D0004FF6FE73194001827047024600231346DD
:1036E0000B441888704721B1028842F400420280DE
:1036F00003E00288C2F30E0202807047B1F5006F4A
:1037000004D1028842F40062028004E002884FF291
:10371000FF731A4002807047B1F5005F04D1028840
:1037200042F40052028004E002884DF6FF731A4012
:103730000280704721B1028842F48052028004E086
:1037400002884EF6FF731A4002807047B1F5006F91
:1037500004D1028842F40062028004E002884FF241
:10376000FF731A400280704721B1028842F02002A4
:10377000028004E002884FF6DF731A40028070472F
:103780000146088B0012704721B1028842F01002F6
:10379000028004E002884FF6EF731A4002807047FF
:1037A00021B9028842F08002028004E002884FF6CC
:1037B0007F731A4002807047B1F5804F05D0828B2D
:1037C0004BF6FF731A40828303E0828B42F48042FF
:1037D0008283704770B50246002400250023002034
:1037E000958A138B1B0445EA030626F07F4404EAFE
:1037F00001068E4201D1012000E0002070BD10B50D
:1038000001460020002300228B8A0A8B120443EA1F
:10381000020424F07F4010BD30B503460020002490
:1038200000221A460C0F21F07F410CB1143201E046
:10383000090C183215680D4201D0012000E000206B
:1038400030BD002221F07F42D3438382704730B5E0
:10385000024600200023948801F0E06504EA154345
:1038600021F07F41948A0C4202D00BB1012000E08C
:10387000002030BD002221F07F42D3438382704775
:103880000054004000127A0040420F00A086010060
:1038900010B50446F948844208D101214015FFF7CC
:1038A000B1FD00216015FFF7ADFD17E0F44884423B
:1038B00008D101210015FFF7A5FD00212015FFF714
:1038C000A1FD0BE0EF48844208D10121C803FFF7B6
:1038D00099FD00214FF40040FFF794FD10BD30B575
:1038E0000246002000235068E74C20400D790C6808
:1038F00044EA0524204350609068E44C2040D1E91C
:1039000002542C434D7944EA450420439060D06A28
:1039100020F470000C7C641EE4B2234340EA0350A0
:10392000D06230BD00210160017141718160C160D0
:1039300001210174704721B1826842F00102826066
:1039400003E0826822F001028260704721B1826840
:1039500042F48072826003E0826822F480728260A6
:10396000704710B50023CBB21AB144681C434460C1
:1039700002E044689C43446010BD816841F0080146
:1039800081607047014600208A6812F0080F01D05C
:10399000012000E000207047816841F0040181604F
:1039A0007047014600208A6812F0040F01D0012000
:1039B00000E00020704721B1826842F4A0028260DA
:1039C00003E0826822F4A002826070470146002072
:1039D0008A6812F4800F01D0012000E000207047B7
:1039E00010B50A4600210023416821F46041531EAE
:1039F00041EA4331416010BD21B1426842F40062A6
:103A0000426003E0426822F4006242607047F0B511
:103A100004460D4600200021092D11DDE068A5F1C6
:103A20000A0606EB4607072606FA07F18843A5F1C2
:103A30000A0606EB460603FA06F10843E0600CE0CE
:103A4000206905EB4507072606FA07F1884305EBD1
:103A5000450603FA06F108432061072A0FDA606B76
:103A6000561E06EB86071F2606FA07F18843561EE8
:103A700006EB860605FA06F10843606322E00D2A8C
:103A80000FDA206BD61F06EB86071F2606FA07F112
:103A90008843D61F06EB860605FA06F10843206325
:103AA00010E0E06AA2F10D0606EB86071F2606FA73
:103AB00007F18843A2F10D0606EB860605FA06F12A
:103AC0000843E062F0BD21B1826842F48012826056
:103AD00003E0826822F48012826070470146C86C5D
:103AE00080B2704765484C300068704721B1426829
:103AF00042F48062426003E0426822F480624260E5
:103B0000704721B1426842F48052426003E042684B
:103B100022F48052426070470A460021816821F4F5
:103B2000E04111438160704721B1826842F4004254
:103B3000826003E0826822F400428260704721B113
:103B4000826842F40212826003E0826822F4021268
:103B500082607047014600208A6812F4001F01D07D
:103B6000012000E000207047F0B504461546002013
:103B700000220026092911DDE068A1F10A0707EB00
:103B8000470C072707FA0CF29043A1F10A0707EB4D
:103B9000470703FA07F21043E0600CE0206901EBED
:103BA000410C072707FA0CF2904301EB410703FA97
:103BB00007F210432061A06BC0F30156EF1C06F121
:103BC000010CA7EB0C0707EB870C1F2707FA0CF279
:103BD0009043EF1C06F1010CA7EB0C0707EB8707DE
:103BE00001FA07F21043A063F0BD10B50A460021A8
:103BF0000023816B21F44011531E41EA035181637C
:103C000010BD10B5002303460B441A6010BD0246D8
:103C10000023134601F128000344186880B270475E
:103C20000A46002141681A4B194011434160704710
:103C30004162826270470A460021416821F01F01FB
:103C400011434160704740B10C490831096841F4A3
:103C500000010A4A0832116007E008490831096882
:103C600021F40001054A0832116070470246002025
:103C700013680B420ED001200DE00000002401402B
:103C800000280140003C0140FFFEF0FFFDF7F1FF7E
:103C9000FFFD3FFF00207047CA430260704770B5C8
:103CA00002460020002300240B125568CEB205EA1C
:103CB000060415681D4202D00CB1012000E000206E
:103CC00070BD00220A12D34303607047314901439B
:103CD000314A1160704770B5002100230F22C4786B
:103CE0000CB32D4C246804F4E064C4F5E064210AAC
:103CF000C1F10403CA40447804FA03F18478144003
:103D000021430901254C0678A155047804F01F05CC
:103D10000124AC4005786D114FF0E02606EB8505D7
:103D2000C5F8004109E0047804F01F050124AC4007
:103D30001B4D0678761145F8264070BD194A0A4099
:103D40000243154B1B1F1A60704739B1124A121DEE
:103D500012680243104B1B1D1A6006E00E4A121D2A
:103D6000126882430C4B1B1D1A607047042808D14F
:103D70004FF0E021096941F004014FF0E0221161A8
:103D800007E04FF0E021096921F004014FF0E02243
:103D9000116170470000FA050CED00E000E400E05E
:103DA00080E100E080FFFF1F0FB41CB5074B06AA9F
:103DB0007B4469460090059800F07BF80020694636
:103DC00000F08AF81CBC5DF814FB0000250100001F
:103DD0002DE9F04104460E4600200AE0E168204645
:103DE000884738B3252806D0D4E901219047206AB6
:103DF000401C2062F2E7E168204600278847050062
:103E000018D0A5F14100192802D820354FF40067D9
:103E10003246294620462760FCF7E4F940B10128E4
:103E200004D0F61D26F007060836D7E7361DD5E77D
:103E30002846D9E7206ABDE8F08170B505460C46F2
:103E4000012A05D02868800600D5EA69002302E02F
:103E5000012305E05B1C934202D2E05C0028F9D10B
:103E6000A869E618C01AA861286A1844286228467A
:103E7000AFF3008004E0D5E9012114F8010B90476D
:103E8000B442F8D32846AFF3008070BD7047704746
:103E9000704710B500F03CF8006810BD10B504463E
:103EA00000F036F8046010BD01694A1C0261087810
:103EB000704700B58FB0CDE901310021059105496A
:103EC0007944CDE9031011466846FFF781FF0FB032
:103ED00000BD0000E5FFFFFF0A6802F8010B0A6061
:103EE000704710B5436913B1AFF3008001E0FFF7ED
:103EF000A4FF012010BD126800F124010A70002205
:103F00004A700122EDE711684FF0FF32E9E7000047
:103F100000487047580300200048704758030020AD
:103F20007546FFF7F9FFAE4605006946534620F097
:103F30000700854618B020B5FCF77CF9BDE82040A5
:103F40004FF000064FF000074FF000084FF0000B55
:103F500021F00701AC46ACE8C009ACE8C009ACE808
:103F6000C009ACE8C0098D4670470446AFF3008035
:103F70002046FCF74BF90000004870475C03002026
:103F800001491820ABBEFEE7260002007047490039
:103F900050EAC12018BF04204A0D18BF40F00100AC
:103FA00040F2FF72B2EB515F08BF40F002000128FF
:103FB00008BF0520704700002DE9F74F144696B062
:103FC0000021C4E902111799099121F00047C9495C
:103FD0008F4206DC1799C4E9000119B00020BDE842
:103FE000F08FC549C54EB94241DD0999DFF810830C
:103FF000DFF810A3C44A00291BDD3346179901F0EE
:1040000063F9B74206D0C14AC14B01F05DF9C4E97A
:1040100000010AE04FF0D352BD4B01F055F9424682
:10402000534601F051F9C4E9000119B00120BDE87F
:10403000F08F35463346179900F02EFDAF4206D07B
:10404000B24AB34B00F028FDC4E900010AE04FF08A
:10405000D352AF4B00F020FD4246534600F01CFD0A
:10406000C4E9000119B04FF0FF30BDE8F08FA94955
:104070008F42179977DC21F000458346A64AA74B6B
:10408000294600F0E1FF0022A54B00F005FD00F0FD
:1040900017FF0A9000F071FF80468A469A4A33461D
:1040A00000F0D2FF2B465A4601F002F905460E46B3
:1040B000964A974B4046514600F0C6FF3A0D0127FD
:1040C0000C922A46334601F0F3F8032FC4E90001AD
:1040D00038D00C98C1F30A51401A07EB4711113937
:1040E00088422FDD8F480096784400EB07100D9032
:1040F000D0E90023AB464046514600F0A5FFCDE98C
:10410000040102460B465846009901F0DDF80546C9
:104110000E4602460B465846009901F0D5F8DDE9F7
:10412000042301F0D1F883460D9804915146D0E95B
:104130000223404600F088FF5A46049B01F0C4F871
:104140007F1CBEE709980028A2BF0A9819B0BDE8F5
:10415000F08F616881F0004161600A9819B04042B7
:10416000BDE8F08FFFE784461798C1F31301C0F351
:104170000A5041F48011A0F2F5300591411100F090
:104180001F08C8F12000129000201090119066487E
:10419000784400EB810000F1140311A80627196888
:1041A0005D68129A01FA08F125FA02F21143059AA4
:1041B000D0F800A0A1FB0256A1FB0C2192440D44B3
:1041C000924534BF4FF0010B4FF0000B50F8042C18
:1041D00005EB0B0E72448D4234BF012100213144A6
:1041E000BBF1000F02D0AA4202D903E0AA4201D2D9
:1041F000012500E000252944C0F800A040E9021292
:104200001B1F001F7F1ECAD10C980F9F00F100508A
:10421000800F12900C98DDE90D56800000F0ADFE85
:10422000CDE90801284600F0BFFE6FF01D0201F045
:104230002CFCCDE90601304600F0B6FE6FF03D02E1
:1042400001F023FC82468B46384600F0ADFE6FF04D
:104250005D0201F01AFC0746884652465B4600F0B4
:104260001BFCDDE9062300F017FCDDE9082300F064
:1042700013FCDDE9082300250E46284601F024F84A
:10428000DDE9062301F020F852465B4601F01CF8F8
:104290003A46434601F00CF8DFF894A0234A53460F
:1042A00000F0D2FE80460F46224A234B3146284674
:1042B00000F0CAFE42463B4600F0EEFB0746884649
:1042C0004FF0A84253463146284600F0BDFE3A461C
:1042D000434600F0E1FB179A12F0004F04D0129A07
:1042E00081F0004152421292C4E90001129819B0C3
:1042F000BDE8F08FFB21E93F7CD90240FB21F93F6B
:104300007370032E8A19A33B000040543163621A74
:1043100061B4D03DFB21394183C8C96D305FE43FB2
:104320000000E03FFC1A0000841A0000182D4454DD
:10433000FB21F93D3326A611460B113C2DE9FF4D1B
:1043400021F0004807460C46B8F1795F08DA00F022
:10435000B7FD002801BF0020324904B0BDE8F08D50
:104360003A4623461046194600F06EFE05460246C0
:104370002D480E460B460621784400F05DF82A468B
:10438000334600F061FEDDE9022382468B46384663
:10439000214600F059FE04460F4652465B46284629
:1043A000314600F051FE22463B4600F08DFF0746A5
:1043B0008A464FF0FF322846314601F066FB1B4A21
:1043C00090450ADA3A46534600F07EFF04B00022D8
:1043D000BDE8F04D134B00F06BBF154A4245A8BF36
:1043E000A8F500154FF00004B8BF124D22462B4629
:1043F00000F06AFF0646884622462B4600200949FF
:1044000000F062FF04460D463A46534630464146A8
:1044100000F05AFF04B022462B46BDE8F04D00F0F4
:1044200047BF00000000F03F341800003333D33F93
:104430000000E93F0000D23F2DE9F0414F1E00EBA4
:10444000C7010446D1E9000115461E4637F00602B1
:104450000DD02A46334600F0F7FD7F1E04EBC7035C
:10446000D3E9002300F018FB37F00602F1D1022F48
:1044700025D0042F13D0062F18BFBDE8F0812A469F
:10448000334600F0E1FDD4E90A2300F005FB2A469B
:10449000334600F0D9FDD4E9082300F0FDFA2A469E
:1044A000334600F0D1FDD4E9062300F0F5FA2A46A0
:1044B000334600F0C9FDD4E9042300F0EDFA2A46A2
:1044C000334600F0C1FDD4E9022300F0E5FA2A46A4
:1044D000334600F0B9FDD4E90023BDE8F04100F017
:1044E000DBBA00002DE9FF4D054621F0004084B005
:1044F0000C46B0F1795F0BDA2846FFF748FD042837
:1045000008BF00F065F8284608B02146BDE8F08DE8
:104510002A460B46104600F097FD06460F462A46EF
:10452000234600F091FD804626488A4632463B46A7
:1045300005217844FFF780FF83461098029160B30D
:10454000214A224B4046514600F07EFDCDE9000154
:104550005A4640465146029B00F076FD8246884608
:10456000DDE906014FF0FF3201F08FFA5246434673
:1045700000F0AAFE32463B4600F066FDDDE9062368
:1045800000F0A2FEDDE9002300F09EFE08B02A46FE
:104590002346BDE8F04D00F08BBE0B465A46304630
:1045A000394600F051FD084A084B00F075FA4246C2
:1045B000534600F049FD08B02A462346BDE8F04DB9
:1045C00000F06ABA7A170000495555555555C5BFD0
:1045D000024A0020110701F058BA000001FDFFFF58
:1045E0002DE9F84F04460D4621F000400091744932
:1045F000884213DB7349884201DC08D13CB1204674
:104600002946BDE8F84F4FF0010201F03EBA6E486E
:10461000002DCCBF6D496E49BDE8F88F6D498842C9
:1046200011DA6D498842A8BF4FF0FF366DDA204697
:104630002946FFF7ACFC042808BFFFF7C9FF204656
:104640002946BDE8F88F6549DFF894A125F00045BB
:10465000884232DA6349884219DA002632464FF03E
:1046600080432046294600F017FA07468846012273
:104670002046294601F009FA0022534600F024FEA4
:104680003A46434600F0C4FA04460D463DE0012692
:10469000002253462046294600F0FEF90746884688
:1046A000002253462046294600F00EFE43463A4675
:1046B00000F0AEFA04460D4627E04B4988421BDA6B
:1046C000DFF828810226002243462046294600F0D2
:1046D000BBFC0022534600F0DFF982460F46002261
:1046E00043462046294600F0EFFD52463B4600F087
:1046F0008FFA04460D4608E0032622462B4600208A
:104700003B4900F085FA04460D4622462B461046EA
:10471000194600F099FC8B46824602460B4600F093
:1047200093FC07460246334888460B4606217844E8
:10473000FFF782FE52465B4600F086FC82462E481A
:104740008B463A46434605217844FFF775FE3A46C4
:10475000434600F079FC02460B46002E504659466F
:104760000CDA00F099F922462B4600F06DFC01B0FE
:1047700022462B46BDE8F04F00F09ABD00F08CF9C0
:1047800022462B4600F060FC1C4A7A4402EBC6032A
:10479000D3E9002300F098FD22462B4600F094FD5B
:1047A000174A7A4402EBC603D3E9002300F080FDE8
:1047B000009A002AB8BF81F00041BDE8F88F0000E0
:1047C000000010440000F07F182D4454FB21F93FF5
:1047D000FB21F9BF0000DC3F0000203E0000F33F5A
:1047E0000000F03F0000E63F008003400000F83F7B
:1047F0000000F0BF4E1400000C140000AA130000CB
:10480000721300002DE9F04D9446CCF1000423F022
:1048100000464CEA0404524F46EAD47498468A464D
:1048200021F00042BC4206D8454240EA050442EA73
:10483000D474BC4204D9BDE8F04D624600F02CB9F6
:10484000A8F14055A5F17F6555EA0C040BD0022470
:1048500004EAA874434DDFF810E144EADA7452EA3E
:10486000000B04D00CE0BDE8F04DFFF7B9BE002C02
:1048700014BF012CBDE8F08D022C30D0032C32D0B7
:1048800056EA0C0B0AD0BE4220D1BA4209D126F01A
:10489000804622F080423346114617E000291ADB99
:1048A00025E0DFF8C8B0FB44002C04BFDBE90001C1
:1048B000BDE8F08D012C02BFDBE9000181F0004171
:1048C000BDE8F08D022C0AD0032C0CD0BA4212D1D4
:1048D000BAF1000F0BDA23482549BDE8F08D2846D0
:1048E0002449BDE8F08D28467146BDE8F08D1D488D
:1048F0002149BDE8F08D921B12153C2AC4BF19480E
:104900001D490EDCB8F1000FBEBF12F13C0F0020B4
:10491000014606DB624600F07BF921F00041FFF71B
:104920005FFE002C08BFBDE8F08D012C04BF81F0B4
:104930000041BDE8F08D114A114B022C07D000F068
:10494000C3FC2A46BDE8F04D0A4B00F0BDBC00F0A8
:10495000BBFC2A46BDE8F04D064B00F0A9BC0000A8
:104960000000F07F182D4454FB2109C036130000CD
:10497000FB21F9BFFB210940FB21F93F075C143300
:1049800026A6A13C00B5294B21F0004287B09A42EF
:1049900003DC00221346009233E0254B9A420DD1EE
:1049A00068B94FF00100FFF779FA002207B013460B
:1049B000104611465DF804EB00F02AB906DB07B09B
:1049C0004FF001025DF804EB01F05FB802AAFFF7B7
:1049D000F3FA10F003014FF001000DD0012914D0BB
:1049E00002291AD00DF1080CBCE80F00FFF7A6FC55
:1049F00007B081F0004100BD0DF1080C0090BCE84B
:104A00000F00FFF76FFD07B000BD0DF1080CBCE80B
:104A10000F00FFF793FC07B000BD0DF1080C0090EC
:104A2000BCE80F00FFF75EFDE2E70000FB21E93F75
:104A30000000F07F21F00042A2F16052B2F5801F29
:104A400001F0004328BFD2F17F6C0BD95FEA001C54
:104A500043EAC20242EB507018BF704728BF20F0F3
:104A600001007047B2F5801FBCBF184670474FEA7F
:104A7000410C1CF5001F02D2084600F059BF70B56A
:104A800000F08CFB00000089FFF7F6BF4FF00040FC
:104A9000A0F580007047000010B591EA030F48BFF1
:104AA00083F0004300F11884841A71EB030C05D2E3
:104AB000121943EB0C03001B61EB0C01DFF824E13E
:104AC0004FEA1154A4EB135C1EEA430F18BF9EEA91
:104AD000445F73D023EA0E03DCF1200E21EA045177
:104AE00043F4801332D322FA0CFE10EB0E0023FAAB
:104AF0000CFE41EB0E01CCF1200E03FA0EFE10EB82
:104B00000E0051F10001B1F5801FCCF1200E32D220
:104B100001EB045112FA0EF2BDE8104058BF704785
:104B2000401C38BF5FEA420218BF7047002814BF1C
:104B300020F0010041F100014FEA410313F5001F8D
:104B400038BF7047A1F1C04100F076BB012A43EBAA
:104B50000302ACF1200CDCF11F0E32BF4FF0000E4F
:104B600023FA0CF310EB030041EB0451B4EB115F9B
:104B7000D0D0A1EB045101F5801149085FEA300063
:104B800001EB04510ED350F1000038BF12FA0EFEB3
:104B900008D1BDE81040C9E7401C38BF5FEA4202B7
:104BA000CAD1C3E7BDE810404FEA410313F5001F27
:104BB00038BF7047A1F1C04100F03EBB9EEA445FA0
:104BC00008D011EA5E0FBDE8104004BF01F00041BB
:104BD00000207047BDE8104070B500F0DFFA00BF5C
:104BE00064FBBE3E0000E0FF02494FF0000000F011
:104BF0001ABF00BF0000F87F491058BFC1F1404103
:104C00005B1058BFC3F140438B42EFF30080704705
:104C10002DE9C04130B4DFF8A0C23CEA111418BF3E
:104C20003CEA131400F0EC8081EA03051CEA11143D
:104C300044EAD57418BF1CEA131500F0C780A4EB32
:104C400005044FF0004545EAC12145EAC32341EA86
:104C5000505143EA525304F17F74994204F50034F1
:104C60004FEAC0204FEAC22208BF904200F09C8069
:104C70004FEA13650FF24016765D4FEA134506FBC7
:104C800005F7C7F1807706FB07F74FEAD737A7FB91
:104C900003687642C8F58038A7FB06CE38BFA8F176
:104CA000010807FB08E64FF0000EA6FB028CE6FBAE
:104CB00003CEDCF1000CCEF1004E38BFAEF1010E98
:104CC000A6FB0C584FF000074FF00005E6FB0E87DF
:104CD000A1FB08C6A0FB07CE16EB0E0645F10005AA
:104CE000E1FB076515F1E04E7EBFA4F580345FEA75
:104CF00046066D4116F1800745F100054FEA17277A
:104D00004FEA066647EA0567A6F1DE46B6F1805F20
:104D10004FEA15251FD9384624F0010C05EBC47164
:104D2000BCF1FE6F01EB0C1102D8F0BCBDE80081B4
:104D300024425CBF01F5801E9EEAC47F02D4F0BC11
:104D4000BDE80081244238D4F0BCA1F1C041BDE8E7
:104D5000004100F071BA4FEAD22242EA43524FEAD0
:104D6000D323A7FB02864FEAD02040EA415007FB3D
:104D700003661EEA0E0F4FEAD12105FB026658BFFB
:104D8000A6EB0056B6EB00564FEA520E4EEAC37E33
:104D900018EB0E0E56EB530EBDD518EB02085E4114
:104DA0007F1C55F10005B6E74FF480154FF0000762
:104DB0004FF000064FF00008ADE7F0BC4FF00000E8
:104DC00001F1C04101F00041BDE8008111EA0C1F72
:104DD0000CEA131500D00CE013EA0C1F00F025803C
:104DE0004FF00000F0BC81EA030101F00041BDE892
:104DF0000081F0BCBDE8004181EA030100F01CBA6B
:104E0000F0BCBDE8004170B500F0C8F9097EFC3E79
:104E100000F007B881EA03014FF0000001F0004103
:104E2000704781EA030100F007BAF0BCBDE8004119
:104E30004FF0000021497047FFFDFBF9F7F5F4F250
:104E4000F0EEEDEBE9E8E6E4E3E1E0DEDDDBDAD825
:104E5000D7D5D4D3D1D0CFCDCCCBCAC8C7C6C5C483
:104E6000C2C1C0BFBEBDBCBBBAB9B8B7B6B5B4B39A
:104E7000B2B1B0AFAEADACABAAA9A8A8A7A6A5A485
:104E8000A3A3A2A1A09F9F9E9D9C9C9B9A99999849
:104E90009797969595949393929191908F8F8E8EEC
:104EA0008D8C8C8B8B8A8989888887878685858479
:104EB00084838382828181800000FF070000F87F65
:104EC0004FEA41034FEA5353A3F58063D3F11E0326
:104ED000C8BFD3F1210C0CDD4FF0004242EAC122E1
:104EE00042EA505232FA03FC8CEAE17CACEBE1700E
:104EF0007047102BC4BF0020704703F5787CBCF1CD
:104F0000FF3F04D06FF0004282EA2100704770B585
:104F100000F044F94992248000207047F2E7000035
:104F20004FEA1153A3F58063D3F11E03A8BFD3F159
:104F3000200C08DB4FF0004242EAC12252EA5052F4
:104F400032FA03F0704709420BD4102BC4BF002083
:104F5000704703F5787CBCF1FF3F05D04FF0FF3080
:104F600070474FF00000704770B500F017F900BFB0
:104F70004992248000207047F0E710F0004248BFBB
:104F80004042B0FA80F310FA03F10AD0C3F11D03D6
:104F900003F580634FEA415002EB035202EBD1214B
:104FA00070474FF000007047B0FA80F310FA03F139
:104FB0000AD0C3F11D0303F580634FEA41504FEA65
:104FC000035202EBD12170474FF000007047000000
:104FD00051EA030C17D41CF5801F58BFBCF5801F85
:104FE00000F10680994218BF704708BF9042704791
:104FF00007D711F5801F58BF13F5801F19D49942A8
:105000007047894270471CF5801F08D5BCF5801F8A
:10501000F7D58B4218BF704708BF824270474FF4E4
:10502000001C1CEB410F38BF1CEB430F01D28B421D
:10503000704770B500F0B2F8922449004FF000516B
:105040004FF08053FFF7D8BDDFF848C170B51CEAB8
:10505000111E1EBF1CEA13159EEA0C0F95EA0C0FD9
:1050600000F06F8081EA030423EA4C134EEAD47EF9
:1050700021EA4C1141F4801143F48013AE44A1FBAA
:10508000024CA0FB0365AEF17F7E361955EB0C0593
:10509000A1FB034C4CF10003A0FB021C16EB0C0619
:1050A000654153F10003094218BF46F0010613F4AD
:1050B000007F0BD14FEA03314FEA0530340341EA58
:1050C000155140EA16506FF003020AE04FEAC3217F
:1050D0004FEAC520F40241EA555140EA56506FF0BC
:1050E000020202EB2E4201EB025585EACE710AD094
:1050F0005FEA440C18BF24F0004450F1000041F175
:10510000000120EAD47040F2FE7C624500D270BDFE
:10511000A84214BF4FF080444FF04044002E08BF17
:105120000024BEF1806FA8BFA1F1C041BDE870406E
:1051300080F282804FF0000001F1C04101F0004197
:1051400070479EEA0C0F0CEA131518BF95EA0C0F76
:1051500006D04FF0000081EA030E0EF0004170BD52
:1051600000F01CF88900013E00F007B800F009B813
:105170004FEA430C5FEA5C5C08D081EA030100F06F
:105180005BB84FEA410C5FEA5C5CF6D14FF000007F
:10519000014970470000FF070000F87F0EF1020E82
:1051A0002EF0030E5EF8046B364205D4012A43EB61
:1051B000030515F5001F12D8012841EB010C1CF561
:1051C000001F0CD80ED14FEAD17C15F5001F0CEB57
:1051D0004C0C0CF1020C08BF4CEBD37C04E04FF0FC
:1051E000080C01E04FEAD37C0CEB4C0526FA05F6DF
:1051F00006F00706B6F1040C06D20EEB860CBDE8ED
:1052000070404CF0010C6047DFE80CF0090B020223
:105210004FF000414FF00000A1F5002170BD19468C
:105220001046012851EB010418BFD4F5001484BFC7
:10523000002001F0004170BD0808A0F500114FEA00
:105240003101704753EA010C17D41CF5801F58BF79
:10525000BCF5801F00F106808B4218BF704708BF65
:105260008242704707D713F5801F58BF11F5801F82
:1052700019D48B4270479B4270471CF5801F08D59C
:10528000BCF5801FF7D5994218BF704708BF904200
:1052900070474FF4001C1CEB430F38BF1CEB410F51
:1052A00001D2994270470FB40CBC03BCFFF7C1BEDA
:1052B00091EA030F10B581F000413FF5F5AB83F0A3
:1052C000004300F009B8000010B591EA030F48BF91
:1052D00083F000433FF5E8AB841A71EB030C07D26F
:1052E00012198CF0004C43EB0C03001B61EB0C011A
:1052F000DFF8A4E14FEA1154A4EB135C1EEA430F5C
:1053000018BF9EEA445F00F0B08023EA6E03524269
:1053100021EA0451C3EB6E0338BF5B1EDCF1200EA3
:1053200025D322FA0CFE10EB0E0043FA0CFE41EBE3
:105330000E01CCF1200E03FA0EFE10EB0E0051F11F
:105340000001CCF1200E29D412FA0EF201EB045127
:10535000BDE8104058BF7047401C1CBFB2F1004F61
:10536000704700280CBF491C20F00100704712EB69
:10537000020E43EB030218BF4FF0010E4EEA420249
:10538000ACF1200CDCF11E0E54D943FA0CFE10EBEC
:105390000E0051F1FF31CCF11E0ED5D50EF1010EEC
:1053A00012FA0EFE404141EB010101EB445C5FEA61
:1053B0005C5C10D910EBDE7001EB045138BFBEF11C
:1053C000004FBDE8104018BF704700280CBF491CB3
:1053D00020F00100704730D24FEAD42C11F50011B3
:1053E00024F400641BD0B1FA81F20B3AA41AA41E73
:1053F000D2F12003914030FA03F31943904001EBBE
:10540000CC71002C01EB0451BDE81040A8BF7047DF
:1054100001F1C0414FF0000001F000417047B0FAC7
:1054200080F310FA03F100D110BDE41A173C4805CF
:10543000C90AE4E701EB045110BD491001EB045126
:10544000BDE810404FEA300002E04FF00001704725
:105450004A0008BF0042F8D0B2F5001F28BF7047CD
:1054600001F000414FF0000070479EEA445F07D012
:1054700011EA5E0FBDE8104004BF00210020704714
:10548000BDE8104070B5FFF789FE00BF40DFF63E73
:1054900083F00041104670470000E0FF43004FEAF0
:1054A000D30C4FEA3C0C43401FBF40070CF1605146
:1054B00013F0FE4F70471CF0006F03D100200CF07A
:1054C000004170470CF0004343EA507010B540EAC9
:1054D000CC0000F0E0F900BF000000924FEA0001AC
:1054E000FFF7AABE4FF000414FF00000A1F50021E8
:1054F0007047000090EA010F48BF81F0004100F1C1
:105500002482421A3CBF801A89184FEAD0524FF0C9
:105510007F4C1CEA410FA2EBD15318BF9CEA026FEB
:1055200000F03B804FF0004C4CEA00204CEA012197
:1055300021FA03FC10EB0C0C1ED202F1FF325FEAE1
:105540001C2040EBC25038BF70471CF07F0F4FEA61
:10555000400C18BFBCF17F4F38BF7047C3F1200328
:10556000994008BF20F00100BCF17F4F38BF704761
:10557000A0F1C04000F0DCB94FEA3C00000A40EB6B
:10558000C25028BF1CF0FF0F4FEA400CE6D018BFF6
:10559000BCF17F4F38BF7047EAE79CEA026F05D045
:1055A00010EA5C0F08BF00F00040704710B500F033
:1055B00072F900BF64FBBE3E4FF47F0C1CEAD012B0
:1055C0001EBF1CEAD11392EA0C0F93EA0C0F00F0F5
:1055D000858090EA010F48BF42F4807240F4000CCD
:1055E00041F400002CF07F4120F07F4000B5814263
:1055F000A2EB03020FF2081CACEB504EC0F100000E
:105600009EF800E04FEA4E0E00FB0EFC38BF49004A
:105610004FEA2C1C02F5FA020CFB0EF34FEACE1EE9
:105620004FEA112C4FEAC1210EEB635E42EB22429E
:105630000EFB0CFC4FEA1C5300FB03114FEA112C2C
:105640004FEA01310EFB0CFC4FEADC4C00FB0C1165
:10565000C14228BF09184CEB03335DF804EB10EB93
:10566000410143EBC250B2F57C0F38BF704729D5DA
:1056700012F0F00F1CBF00F1C04000F00040704776
:10568000008182838485868788898B8C8D8E8F911B
:105690009293959697999A9C9D9FA0A2A3A5A7A83F
:1056A000AAACAEB0B2B3B5B7B9BCBEC0C2C5C7C96B
:1056B000CCCED1D4D7D9DCDFE2E6E9ECF0F3F7FACF
:1056C000FE0000004FEA400C0CF1807CBCF17E4FE4
:1056D00028BF7047B0F1C04000F02AB990EA010F2E
:1056E0000CEAD11348BF42F48072624538BF63456B
:1056F00007D213F47F0F16D080EA010000F00040BB
:10570000704710B500F0C7F8097EFC3E00F005B800
:1057100080EA010000F00040704780EA010000F0DC
:10572000004000F005B912F47F0F04BF0248704733
:1057300080EA010000F0FCB80000C07F10F00041DA
:1057400048BF4042B0FA80F310FA03F2C3F19D0360
:105750000BD051EAC35101EB1220530638BF7047FA
:1057600000F1010008BF20F001007047B0FA80F39B
:1057700010FA03F2C3F19D030AD0D90501EB122000
:10578000530638BF704700F1010008BF20F0010048
:10579000704700004FF47F0C1CEAD0121EBF1CEAB9
:1057A000D11392EA0C0F93EA0C0F00F0478090EAB5
:1057B000010F48BF42F480724FF0004C4CEA0020C9
:1057C0004CEA012102EB0302A0FB0113A2F5000247
:1057D000002918BF43F001035B0028BF4FEA3303E1
:1057E00042EB22425FEA132C4CEBC2502EBFBCEBC3
:1057F000436FB2F57C0F70474FEA036CBCF1004F6A
:1058000008BF20F00100B2F57C0F38BF70470BD500
:1058100082F0FF0212F5803FC8BF704700F1C04020
:10582000D8BF00F00040704700F5000C5FEA4C0C58
:1058300048BF7047B0F1C04000F07AB890EA010F5D
:105840000CEAD11348BF42F48072624538BF634509
:1058500004D280EA010000F00040704710B500F06B
:105860001AF800BF8900013E00F007B800F009B83F
:105870005FEA410C5FEA1C6C08D080EA010000F08E
:1058800057B85FEA400C5FEA1C6CF6D14FF000405D
:10589000A0F5800070470EF1020E2EF0030E5EF8A8
:1058A000044B244204D44FEA4102B2F17F4F11D895
:1058B0004FEA4003B3F17F4F0CD80ED14FEAD07CB2
:1058C000B2F17F4F0CEB4C0C0CF1020C08BF4CEB0F
:1058D000D17C04E04FF0080C01E04FEAD17C0CEBE6
:1058E0004C0324FA03F404F00704B4F1040C06D2C8
:1058F0000EEB840CBDE810404CF0010C6047DFE873
:105900000CF0070802024FF00040A0F5800010BD27
:105910000846420018BFD2F1807288BF00F00040F4
:1059200010BD10B5FEF728FB4FF00001016010BD5F
:10593000FF2141EAD050C0057047000090EA010FF6
:1059400048BF81F000413FF5DCAD421A04D882F037
:105950000042A0EB020011444FEAD0524FF07F4CBE
:105960001CEA410FA2EBD15318BF9CEA026F4AD048
:105970004FF0004C4CEA00204CEA012121FA03FCD4
:10598000B0EB0C0C0FD412F0FE0F36D05FEA4C00D7
:105990001DD5001240EBC25038BF70471CF03F0FBE
:1059A00018BF70470BE0A2F101025FEA1C2040EB38
:1059B000C25038BF70471CF07F0F18BF7047C3F14B
:1059C0002003994014BF401E20F00100704780085A
:1059D0004FEA122308BF7047B0FA80FCA2EB0C021A
:1059E000CCF1280C60FA0CF093EA122F04BF00EB04
:1059F000C25070474FEAC3707047130A5FEADC1069
:105A000008BF7047F6E79CEA026F04D010EA5C0F0B
:105A100008BF0020704710B5FFF73DFF40DFF63E9E
:105A200081F0004070470CF00F03092B08BF0820DD
:105A300000F059800A2B0BD0082B18BF704708BF05
:105A40001CF0400F0AD04FF000004FF000017047EB
:105A50001CF0400F18BF4FF0004070471CF0100FB3
:105A600008D020F0704300F07F4242EAD3014FEAB1
:105A70004370704700F0604021F07F4242EA00022C
:105A800001F07F4040EA727070474FF0FF0C4CF419
:105A9000E06C1CEA11531CBF9CEA030C9445C2BF86
:105AA000DA4201EB02517047002B0DD0BCF1000F20
:105AB0000FD0002A01F00041A4BF41F0E04141F0C5
:105AC0007F614FF00000704701F000414FF000008F
:105AD000704750EA01334FF09B0C18BF4CF0806CBC
